S012000045545F53494E574156452E73726563FD
S11300000C94C4000C94D6000C94D6000C94D60026
S11300100C94D6000C94D6000C94D6000C94D60004
S11300200C94D6000C94D6000C94D6000C94D600F4
S11300300C9403020C94D6000C94D6000C94D600B5
S11300400C94D6000C94D6000C94D6000C94D600D4
S11300500C94D6000C94D6000C94D6000C94D600C4
S11300600C94D6000C94D6000C94D6000C94D600B4
S11300700C94D6000C94D6000C94D6000C94D600A4
S11300800C94D6000C94D6000C94D6000C94D60094
S11300900C94D6000C94D6000C94D6000C94D60084
S11300A00C94D6000C94D6000C94D6000C94D60074
S11300B00C94D6000C94D6000C94D6000C94D60064
S11300C00C94D6000C94D6000C94D6000C94D60054
S11300D00C94D6000C94D6000C94D6000C94D60044
S11300E00C94D6000C94D60007634236B79BD8A76D
S11300F01A39685618AEBAAB558C1D3CB7CC576349
S1130100BD6DEDFD753EF6177231BF000000803FF6
S113011005A84CCDB2D44EB93836A9020C50B991C9
S11301208688083CA6AAAA2ABE000000803F0800D0
S11301300000BE922449123EABAAAA2ABECDCCCC62
S11301404C3E00000080BEABAAAAAA3E00000000FC
S1130150BF000000803F0000000000084178D3BBCE
S11301604387D1133D190E3CC3BD4282AD2B3E687B
S1130170EC8276BED98FE1A93E4C80EFFFBE01C46C
S1130180FF7F3F000000000011241FBECFEFCDBF52
S1130190DFE7DEBF20E4A0E0B0E401C01D92AE338F
S11301A0B207E1F70E949D020C9400070C94000032
S11301B06150710920E030E00EC0DC01A20FB31FD2
S11301C04C91FC01E60FF71F50815C9340832F5F35
S11301D03F4F61507109261737077CF30895CF927A
S11301E0DF92EF92FF920F931F93CF93DF938A01D5
S11301F06901C0E0D0E011C07801EC0EFD1E2AE0D8
S113020030E040E050E00E94BF06605DF70160838B
S1130210622F732F842F952F219661157105810507
S1130220910551F706C0F801EC0FFD1F80E38083B0
S11302302196CC15DD05BCF3BE01C8010E94D8008F
S1130240F801EC0FFD1F1082CE01DF91CF911F91B9
S11302500F91FF90EF90DF90CF9008958F929F922F
S1130260AF92BF92CF92DF92EF92FF920F931F93C0
S1130270CF93DF934B015C018A01E9010E948A0359
S11302806B01770FEE08FF08C701B6010E94C20395
S11302909B01AC01C501B4010E94A6024B015C01A3
S11302A020E030E0A801C701B6010E94EF007C0104
S11302B0209749F1F801E80FF91F8EE28083BE010F
S11302C00D2E000C880B990B0E94C2039B01AC01FC
S11302D060E070E080E291E40E94DF049B01AC01E5
S11302E0C501B4010E9472042FEFE21AF20A0E94BF
S11302F08A03A8014E0D5F1D072E000C880B990B75
S11303009E010E94EF00DF91CF911F910F91FF900A
S1130310EF90DF90CF90BF90AF909F908F90089513
S1130320E0E4F4E020812D7F20832081216020837C
S1130330BC0180E090E00E94C00320E030E040E88F
S113034051E40E9472049B01AC0160E074E284E712
S11303509DE40E94180320E030E040E05FE30E9447
S1130360A7020E949103E0E2F8E06087718786812A
S1130370806C868308959091240895FFFCCF809328
S1130380220808950F931F93CF93DF938C01C0E04D
S1130390D0E007C0F801EC0FFD1F80810E94BB0173
S11303A02196F80101900020E9F73197E01BF10B49
S11303B0CE17DF0778F38AE00E94BB01DF91CF916B
S11303C01F910F9108959A0148E050E40E942E0174
S11303D088E090E40E94C201089578948FE99FE038
S11303E080930C0B90930D0BE1E0FBE08081808304
S11303F0E5E0FBE0808181608083E0E0FBE08081D8
S11304008160808308951F920F920FB60F9211247A
S11304100BB60F928F939F93AF93BF93EF93FF937A
S113042080913A4090913B40A0913C40B0913D4036
S11304300196A11DB11D80933A4090933B40A09337
S11304403C40B0933D40E6E0FBE0808181608083E6
S1130450FF91EF91BF91AF919F918F910F900BBE40
S11304600F900FBE0F901F90189580913A40909175
S11304703B40A0913C40B0913D408093004090931C
S11304800140A0930240B093034060E070E047C095
S1130490072E000C880B990B0E94C2032CE934EC44
S11304A040E25FE30E9472042FE632E143E85AE33C
S11304B00E9472040E942F0520E030E04FE753E4CD
S11304C00E94720460930440709305408093064038
S11304D09093074020E030E0A9010E941303882391
S11304E044F4109204401092054010920640109279
S11304F007406091044070910540809106409091BE
S1130500074041E050E00E94E30160913A4070915D
S11305103B408091004090910140681B790B603111
S113052087E278070CF4B4CF109200401092014097
S1130530109202401092034008950E94ED0180E859
S113054095E20E9490010E943502FDCF5058BB27CE
S1130550AA270E94BE020C9438040E942A0438F090
S11305600E94310420F039F49F3F19F426F40C94CE
S113057027040EF4E095E7FB0C942104E92F0E9474
S1130580490458F3BA17620773078407950720F0E4
S113059079F4A6F50C946B040EF4E0950B2EBA2FA7
S11305A0A02D0B01B90190010C01CA01A001112475
S11305B0FF27591B99F0593F50F4503E68F11A1621
S11305C0F040A22F232F342F4427585FF3CF4695B2
S11305D037952795A795F0405395C9F77EF41F16D4
S11305E0BA0B620B730B840BBAF09150A1F0FF0F9E
S11305F0BB1F661F771F881FC2F70EC0BA0F621F8A
S1130600731F841F48F4879577956795B795F79579
S11306109E3F08F0B0CF9395880F08F09927EE0F0E
S11306209795879508950E94FD0308F481E0089545
S11306300E942C030C9438040E94310458F00E9448
S11306402A0440F029F45F3F29F00C94210451114D
S11306500C946C040C9427040E94490468F39923B5
S1130660B1F3552391F3951B550BBB27AA276217AA
S11306707307840738F09F5F5F4F220F331F441FB7
S1130680AA1FA9F335D00E2E3AF0E0E832D09150EB
S11306905040E695001CCAF72BD0FE2F29D0660FD8
S11306A0771F881FBB1F261737074807AB07B0E81B
S11306B009F0BB0B802DBF01FF2793585F4F3AF021
S11306C09E3F510578F00C9421040C946C045F3F18
S11306D0E4F3983ED4F3869577956795B795F795A7
S11306E09F5FC9F7880F911D9695879597F908958F
S11306F0E1E0660F771F881FBB1F6217730784072B
S1130700BA0720F0621B730B840BBA0BEE1F88F739
S1130710E09508950E9491036894B1110C946C04BF
S113072008950E94510488F09F5798F0B92F992793
S1130730B751B0F0E1F0660F771F881F991F1AF0C8
S1130740BA95C9F714C0B13091F00E946B04B1E0BE
S113075008950C946B04672F782F8827B85F39F0BD
S1130760B93FCCF3869577956795B395D9F73EF461
S113077090958095709561957F4F8F4F9F4F089509
S1130780E89409C097FB3EF4909580957095619527
S11307907F4F8F4F9F4F9923A9F0F92F96E9BB27DD
S11307A09395F695879577956795B795F111F8CF59
S11307B0FAF4BB0F11F460FF1BC06F5F7F4F8F4FC4
S11307C09F4F16C0882311F096E911C0772321F0BA
S11307D09EE8872F762F05C0662371F096E8862F52
S11307E070E060E02AF09A95660F771F881FDAF7A9
S11307F0880F9695879597F90895990F0008550FD6
S1130800AA0BE0E8FEEF16161706E807F907C0F092
S113081012161306E407F50798F0621B730B840B9A
S1130820950B39F40A2661F0232B242B252B21F474
S113083008950A2609F4A140A6958FEF811D811D14
S1130840089597F99F6780E870E060E008959FEF4E
S113085080EC089500240A94161617061806090653
S1130860089500240A941216130614060506089522
S1130870092E0394000C11F4882352F0BB0F40F4AA
S1130880BF2B11F460FF04C06F5F7F4F8F4F9F4FEA
S1130890089557FD9058440F551F59F05F3F71F06C
S11308A04795880F97FB991F61F09F3F79F08795D3
S11308B00895121613061406551FF2CF4695F1DF5C
S11308C008C0161617061806991FF1CF86957105EC
S11308D0610508940895E894BB2766277727CB0120
S11308E097F908950E9485040C9438040E942A0400
S11308F038F00E94310420F0952311F00C94210467
S11309000C94270411240C946C040E94490470F381
S1130910959FC1F3950F50E0551F629FF001729FA0
S1130920BB27F00DB11D639FAA27F00DB11DAA1FAF
S1130930649F6627B00DA11D661F829F2227B00DFC
S1130940A11D621F739FB00DA11D621F839FA00D87
S1130950611D221F749F3327A00D611D231F849FD7
S1130960600D211D822F762F6A2F11249F5750402E
S11309709AF0F1F088234AF0EE0FFF1FBB1F661FA9
S1130980771F881F91505040A9F79E3F510580F072
S11309900C9421040C946C045F3FE4F3983ED4F36C
S11309A0869577956795B795F795E7959F5FC1F716
S11309B0FE2B880F911D9695879597F90895FA0156
S11309C0EE0FFF1F309621053105A1F16115710568
S11309D061F48038BFE39B0749F16894903881053E
S11309E061F08038BFEF9B0741F099234AF5FF3F40
S11309F0E1053105210519F1E8940894E795D90139
S1130A00AA2329F4AB2FBE2FF85FD0F310C0FF5FE9
S1130A1070F4A695E0F7F73950F019F0FF3A38F47E
S1130A209F779F930DD00F9007FC9058089546F040
S1130A300C94270460E070E080E89FE308954FE79A
S1130A409F775F934F933F932F930E9421062F919B
S1130A503F914F915F910E9472040C943F059F93C4
S1130A600E949A050F9007FCEE5F0C94C30529F4CD
S1130A7016F00C9421040C946B040C9427040E942B
S1130A805104A8F39638A0F707F80F92E8942BE3E3
S1130A903AEA48EB5FE70E9488040F920F920F92A4
S1130AA04DB75EB70F920E946906E8EEF0E00E942F
S1130AB071054F915F91EF91FF91E595EE1FFF1F37
S1130AC049F0FE57E0684427EE0F441FFA95E1F71A
S1130AD04195550B0E94E3050F9007FE0C94D70532
S1130AE00895DF93CF931F930F93FF92EF92DF92BA
S1130AF07B018C01689406C0DA2EEF010E94850404
S1130B00FE01E894A5912591359145915591A6F35F
S1130B10EF010E94BE02FE019701A801DA9469F771
S1130B20DF90EF90FF900F911F91CF91DF91089587
S1130B300C9427040E945104D8F3E894E0E0BB2706
S1130B409F57F0F02AED3FE049EC06C0EE0FBB0FD3
S1130B50661F771F881F28F0B23A6207730784075D
S1130B6028F0B25A620B730B840BE3959A9572F7D3
S1130B70803830F49A95BB0F661F771F881FD2F711
S1130B8090480C949F06EF93E0FF07C0A2EA2AED79
S1130B903FE049EC5FEB0E94BE020E9438040F90D4
S1130BA0039401FC9058E0E1F1E00C94AB069B0146
S1130BB0AC0160E070E080E89FE30C9418030C94AF
S1130BC021040C949D060E945104D8F39923C9F37F
S1130BD0940F511DA3F39150504094F059F0882381
S1130BE032F0660F771F881F91505040C1F79E3F27
S1130BF051052CF7880F911D9695879597F90895BF
S1130C005F3FACF0983E9CF0BB278695779567953F
S1130C10B79508F4B1609395C1F7BB0F58F711F479
S1130C2060FFE8CF6F5F7F4F8F4F9F4FE3CF0C94F0
S1130C306C0416F00C949D060C94270468940C9490
S1130C4021040E945104A8F39923C1F3AEF3DF9366
S1130C50CF931F930F93FF92C92FDD2788232AF088
S1130C602197660F771F881FDAF720E030E040E80D
S1130C705FEB9FE3883920F0803E38F021968F7730
S1130C800E94A702EEE2F1E004C00E94A702EBE595
S1130C90F1E00E9471058B01BE01EC01FB2E6F5740
S1130CA071097595771F880B990B0E94C20328E17F
S1130CB032E741E35FE30E948504AF2D9801AE0162
S1130CC0FF900F911F91CF91DF910E94BE020C946F
S1130CD03804FA01DC01AA0FBB1F9B01AC01BF570A
S1130CE028F4222733274427507820C0B75190F4A2
S1130CF0AB2F0024469537952795011CA395D2F375
S1130D00002071F0220F331F441FB395DAF30ED085
S1130D100C94A60261307105A0E88A07B94630F444
S1130D209B01AC016627772788279078309621F0BD
S1130D30208331834283538308959F3F31F0915040
S1130D4020F4879577956795B795880F911D9695AB
S1130D50879597F908959F938F937F936F93FF934C
S1130D60EF939B01AC010E947204EF91FF910E94EA
S1130D7071052F913F914F915F910C947204052E50
S1130D8097FB1EF400940E94D60657FD07D00E94DC
S1130D90DE0607FC03D04EF40C94D606509540951D
S1130DA0309521953F4F4F4F5F4F08959095809513
S1130DB0709561957F4F8F4F9F4F0895A1E21A2E32
S1130DC0AA1BBB1BFD010DC0AA1FBB1FEE1FFF1FEB
S1130DD0A217B307E407F50720F0A21BB30BE40B3B
S1130DE0F50B661F771F881F991F1A9469F7609582
S1130DF07095809590959B01AC01BD01CF0108953C
S1070E00F894FFCF90
S9030000FC
