S012000045545F53494E574156452E73726563FD
S11300000C94B5000C94D4000C94D4000C94D4003B
S11300100C94D4000C94D4000C94D4000C94D4000C
S11300200C94D4000C94D4000C94D4000C94D400FC
S11300300C94D7030C94D4000C94D4000C94D400E6
S11300400C94D4000C94D4000C94D4000C94D400DC
S11300500C94D4000C94D4000C94D4000C94D400CC
S11300600C94D4000C94D4000C94D4000C94D400BC
S11300700C94D4000C94D4000C94D4000C94D400AC
S11300800C94D4000C94D4000C94D4000C94D4009C
S11300900C94D4000C94D4000C94D4000C94D4008C
S11300A00C94D4000C94D4000C94D4000C94D4007C
S11300B00C94D4000C94D4000C94D4000C94D4006C
S11300C00C94D4000C94D4000C94D4000C94D4005C
S11300D00C94D4000C94D4000C94D4000C94D4004C
S11300E00C94D4000C94D40007634236B79BD8A771
S11300F01A39685618AEBAAB558C1D3CB7CC576349
S1130100BD6DEDFD753EF6177231BF000000803FF6
S113011008000000BE922449123EABAAAA2ABECD12
S1130120CCCC4C3E00000080BEABAAAAAA3E000084
S11301300000BF000000803F00000000000841787C
S1130140D3BB4387D1133D190E3CC3BD4282AD2BB3
S11301503E68EC8276BED98FE1A93E4C80EFFFBEAB
S113016001C4FF7F3F000000000011241FBECFEF39
S1130170CDBFDFE7DEBF10E4A0E0B0E4E0E1F0E1F2
S113018000E00BBF02C007900D92A639B107D9F762
S113019021E4A6E9B0E401C01D92A430B207E1F75E
S11301A00E9409040C9406080C9400006150710923
S11301B020E030E00EC0DC01A20FB31F4C91FC0123
S11301C0E60FF71F50815C9340832F5F3F4F6150D0
S11301D07109261737077CF30895CF92DF92EF92C7
S11301E0FF920F931F93CF93DF938A016901C0E0BD
S11301F0D0E011C07801EC0EFD1E2AE030E040E0B2
S113020050E00E94AB07605DF7016083622F732F9B
S1130210842F952F2196611571058105910551F75C
S113022006C0F801EC0FFD1F80E380832196CC15F6
S1130230DD05BCF3BE01C8010E94D600F801EC0F35
S1130240FD1F1082CE01DF91CF911F910F91FF907E
S1130250EF90DF90CF9008958F929F92AF92BF92CC
S1130260CF92DF92EF92FF920F931F93CF93DF937E
S11302704B015C018A01E9010E94F5046B01770FCF
S1130280EE08FF08C701B6010E942D059B01AC01D1
S1130290C501B4010E9416044B015C0120E030E06A
S11302A0A801C701B6010E94ED007C01209749F125
S11302B0F801E80FF91F8EE28083BE010D2E000CB9
S11302C0880B990B0E942D059B01AC0160E070E046
S11302D080E291E40E9426069B01AC01C501B401B1
S11302E00E94B9052FEFE21AF20A0E94F504A80150
S11302F04E0D5F1D072E000C880B990B9E010E946A
S1130300ED00DF91CF911F910F91FF90EF90DF905F
S1130310CF90BF90AF909F908F900895E0E4F4E069
S113032020812D7F2083208121602083BC0180E0F7
S113033090E00E942B0520E030E040E851E40E9468
S1130340B9059B01AC0160E074E284E79DE40E947E
S1130350830420E030E040E05FE30E9417040E9441
S1130360FC04E0E2F8E0608771878681806C868314
S113037008959091240895FFFCCF80932208089556
S11303800F931F93CF93DF938C01C0E0D0E007C09D
S1130390F801EC0FFD1F80810E94B9012196F8013C
S11303A001900020E9F73197E01BF10BCE17DF072E
S11303B078F38AE00E94B901DF91CF911F910F91E8
S11303C008959A0149EA50E40E942C0189EA90E4D4
S11303D00E94C0010895E0E0F9E081E0858383E0B4
S11303E084830895E0E0F9E08DE0868381E08583ED
S11303F083818A6083838381816083830895CF931B
S1130400DF93C82FD62F809105098370833089F438
S113041089E390E40E94C00120E63AEE01C09C0109
S1130420809105098370833021F4C9010197232B3E
S1130430B1F785E080930509DD2341F08C2F90E02E
S1130440880F991F81608093070904C08C2F880F3F
S11304508093070980E69AEE2091050924FF06C0DF
S11304602091050926FD02C00197B1F7892B21F4DB
S113047083E490E40E94C0018091050982FF04C0D6
S11304808BE490E40E94C001DF91CF910895E7EEE0
S1130490F3E03197F1F700C000008093080980E68B
S11304A09AEE2091050924FF02C00197D1F7892B08
S11304B021F483E490E40E94C0018091050983FD46
S11304C004C08091050982FF06C08AE690E40E9478
S11304D0C0010E94EB010895CF93DF93C0E6DAEEEA
S11304E080910509882314F02197D1F7809105099B
S11304F083FD04C08091050982FF06C08EE790E465
S11305000E94C0010E94EB01CD2B21F483E490E40E
S11305100E94C00180910809DF91CF910895E0E025
S1130520F4E082898860828B83898860838B83E38B
S113053093E3A3E3B0E08093FC409093FD40A09349
S1130540FE40B093FF408CEC9CECACECB0E08093AC
S1130550A5409093A640A093A740B093A84080E8FC
S113056095E20E948E010E94F20108958F929F925B
S1130570AF92BF92CF92DF92EF92FF92CF93DF932D
S113058060E088E10E94FF018AEA0E94470280E05D
S11305900E94470280E00E9447020E94EB018FE024
S11305A097E20197F1F700C0000061E088E10E9442
S11305B0FF010E946C028093A0400E946C0290E0B4
S11305C0A0E0B0E0BA2FA92F982F88278093A140EC
S11305D09093A240A093A340B093A4400E946C02C5
S11305E04091A1405091A2406091A3407091A440D9
S11305F0482B762F652F542F44274093A1405093C6
S1130600A2406093A3407093A4400E946C02409166
S1130610A1405091A2406091A3407091A440482B06
S11306204093A1405093A2406093A3407093A44090
S1130630E0E0F9E08481846084838FE097E20197AD
S1130640F1F700C000008090FC409090FD40A09025
S1130650FE40B090FF408091A1409091A240A091B3
S1130660A340B091A4409C01AD01281939094A095D
S11306705B09C0919E40D0919F40A0910240B091EF
S11306800340AC1BBD0B0E94CA070E942B056B01E3
S11306907C018091A5409091A640A091A740B09183
S11306A0A840BC01CD01681979098A099B090E94F7
S11306B02B059B01AC01C701B6010E9483046B01A9
S11306C07C01BE0180E090E00E942B05A701960109
S11306D00E94170460939A4070939B4080939C40BF
S11306E090939D402FE23DE94CE852E40E94B90505
S11306F0609396407093974080939840909399406C
S113070041E050E00E94E101609196407091974071
S11307108091984090919940DF91CF91FF90EF9014
S1130720DF90CF90BF90AF909F908F900895E0E0BE
S1130730F4E0808181608083A0E8B4E08C918160E2
S11307408C938C9182608C9380898860808BE0E0AC
S1130750FAE086E99FE086A397A3809100409091F8
S1130760014080A791A710A211A28081808381817A
S113077080618183818183608183808181608083C2
S1130780089578948FE99FE080930C0B90930D0B60
S1130790E1E0FBE080818083E5E0FBE08081816033
S11307A08083E0E0FBE080818160808308951F9274
S11307B00F920FB60F9211240BB60F928F939F9343
S11307C0AF93BF93EF93FF938091004190910141C8
S11307D0A0910241B09103410196A11DB11D8093E6
S11307E0004190930141A0930241B0930341E6E09C
S11307F0FBE0808181608083FF91EF91BF91AF9195
S11308009F918F910F900BBE0F900FBE0F901F9072
S113081018950E94C10380E895E20E948E010E940F
S11308208F020E9497030E94B602FDCF5058BB2747
S1130830AA270E942E040C947F050E94710538F0AB
S11308400E94780520F039F49F3F19F426F40C94A3
S11308506E050EF4E095E7FB0C946805E92F0E9401
S1130860900558F3BA17620773078407950720F0B9
S113087079F4A6F50C94B2050EF4E0950B2EBA2F7C
S1130880A02D0B01B90190010C01CA01A001112492
S1130890FF27591B99F0593F50F4503E68F11A163E
S11308A0F040A22F232F342F4427585FF3CF4695CF
S11308B037952795A795F0405395C9F77EF41F16F1
S11308C0BA0B620B730B840BBAF09150A1F0FF0FBB
S11308D0BB1F661F771F881FC2F70EC0BA0F621FA7
S11308E0731F841F48F4879577956795B795F79597
S11308F09E3F08F0B0CF9395880F08F09927EE0F2C
S11309009795879508950E9497040C947F050E94FB
S1130910780558F00E94710540F029F45F3F29F0F2
S11309200C94680551110C94B3050C946E050E9447
S1130930900568F39923B1F3552391F3951B550B57
S1130940BB27AA2762177307840738F09F5F5F4F9E
S1130950220F331F441FAA1FA9F335D00E2E3AF0DD
S1130960E0E832D091505040E695001CCAF72BD0F5
S1130970FE2F29D0660F771F881FBB1F2617370746
S11309804807AB07B0E809F0BB0B802DBF01FF2778
S113099093585F4F3AF09E3F510578F00C946805E8
S11309A00C94B3055F3FE4F3983ED4F386957795B2
S11309B06795B795F7959F5FC9F7880F911D969531
S11309C0879597F90895E1E0660F771F881FBB1F8D
S11309D0621773078407BA0720F0621B730B840B3A
S11309E0BA0BEE1F88F7E09508950E94FC04689402
S11309F0B1110C94B30508950E94980588F09F578F
S1130A0098F0B92F9927B751B0F0E1F0660F771F2E
S1130A10881F991F1AF0BA95C9F714C0B13091F024
S1130A200E94B205B1E008950C94B205672F782FA7
S1130A308827B85F39F0B93FCCF3869577956795E9
S1130A40B395D9F73EF490958095709561957F4F55
S1130A508F4F9F4F0895E89409C097FB3EF49095FB
S1130A608095709561957F4F8F4F9F4F9923A9F083
S1130A70F92F96E9BB279395F69587957795679512
S1130A80B795F111F8CFFAF4BB0F11F460FF1BC056
S1130A906F5F7F4F8F4F9F4F16C0882311F096E9E9
S1130AA011C0772321F09EE8872F762F05C0662397
S1130AB071F096E8862F70E060E02AF09A95660F50
S1130AC0771F881FDAF7880F9695879597F9089509
S1130AD097F99F6780E870E060E008959FEF80ECED
S1130AE0089500240A941616170618060906089590
S1130AF000240A9412161306140605060895092EF6
S1130B000394000C11F4882352F0BB0F40F4BF2B64
S1130B1011F460FF04C06F5F7F4F8F4F9F4F0895A4
S1130B2057FD9058440F551F59F05F3F71F047959A
S1130B30880F97FB991F61F09F3F79F0879508957F
S1130B40121613061406551FF2CF4695F1DF08C09E
S1130B50161617061806991FF1CF869571056105BB
S1130B6008940895E894BB2766277727CB0197F963
S1130B7008950E94CC050C947F050E94710538F0FD
S1130B800E94780520F0952311F00C9468050C94CC
S1130B906E0511240C94B3050E94900570F3959F83
S1130BA0C1F3950F50E0551F629FF001729FBB2760
S1130BB0F00DB11D639FAA27F00DB11DAA1F649FFC
S1130BC06627B00DA11D661F829F2227B00DA11DAF
S1130BD0621F739FB00DA11D621F839FA00D611D35
S1130BE0221F749F3327A00D611D231F849F600D56
S1130BF0211D822F762F6A2F11249F5750409AF07F
S1130C00F1F088234AF0EE0FFF1FBB1F661F771F0A
S1130C10881F91505040A9F79E3F510580F00C94D5
S1130C2068050C94B3055F3FE4F3983ED4F38695CE
S1130C3077956795B795F795E7959F5FC1F7FE2B75
S1130C40880F911D9695879597F90895FA01EE0FEF
S1130C50FF1F309621053105A1F16115710561F47D
S1130C608038BFE39B0749F168949038810561F0AF
S1130C708038BFEF9B0741F099234AF5FF3FE10518
S1130C803105210519F1E8940894E795D901AA23BF
S1130C9029F4AB2FBE2FF85FD0F310C0FF5F70F4C0
S1130CA0A695E0F7F73950F019F0FF3A38F49F773A
S1130CB09F930DD00F9007FC9058089546F00C9424
S1130CC06E0560E070E080E89FE308954FE79F774A
S1130CD05F934F933F932F930E9421072F913F914E
S1130CE04F915F910E94B9050C947E0629F416F089
S1130CF00C9468050C94B2050C946E050E9498053A
S1130D00A8F39638A0F707F80F92E8942BE33AEA91
S1130D1048EB5FE70E94CF050F920F920F924DB7F9
S1130D205EB70F920E946907E8EEF0E00E94B006F9
S1130D304F915F91EF91FF91E595EE1FFF1F49F0F1
S1130D40FE57E0684427EE0F441FFA95E1F74195FA
S1130D50550B0E94E3060F9007FE0C94D7060895E6
S1130D60DF93CF931F930F93FF92EF92DF927B0158
S1130D708C01689406C0DA2EEF010E94CC05FE01B6
S1130D80E894A5912591359145915591A6F3EF01EC
S1130D900E942E04FE019701A801DA9469F7DF90FE
S1130DA0EF90FF900F911F91CF91DF9108959B01D8
S1130DB0AC0160E070E080E89FE30C9483040C9441
S1130DC068050C949D070E949805D8F39923C9F3EC
S1130DD0940F511DA3F39150504094F059F088237F
S1130DE032F0660F771F881F91505040C1F79E3F25
S1130DF051052CF7880F911D9695879597F90895BD
S1130E005F3FACF0983E9CF0BB278695779567953D
S1130E10B79508F4B1609395C1F7BB0F58F711F477
S1130E2060FFE8CF6F5F7F4F8F4F9F4FE3CF0C94EE
S1130E30B30516F00C949D070C946E0568940C94FD
S1130E4068050E949805A8F39923C1F3AEF3DF93D4
S1130E50CF931F930F93FF92C92FDD2788232AF086
S1130E602197660F771F881FDAF720E030E040E80B
S1130E705FEB9FE3883920F0803E38F021968F772E
S1130E800E941704E0E1F1E004C00E941704EDE3BE
S1130E90F1E00E94B0068B01BE01EC01FB2E6F57FE
S1130EA071097595771F880B990B0E942D0528E110
S1130EB032E741E35FE30E94CC05AF2D9801AE0118
S1130EC0FF900F911F91CF91DF910E942E040C94FB
S1130ED07F05FA01DC01AA0FBB1F9B01AC01BF57C0
S1130EE028F4222733274427507820C0B75190F4A0
S1130EF0AB2F0024469537952795011CA395D2F373
S1130F00002071F0220F331F441FB395DAF30ED083
S1130F100C94160461307105A0E88A07B94630F4D0
S1130F209B01AC016627772788279078309621F0BB
S1130F30208331834283538308959F3F31F091503E
S1130F4020F4879577956795B795880F911D9695A9
S1130F50879597F90895052E97FB1EF400940E9437
S1130F60C20757FD07D00E94D50707FC03D04EF4F3
S1130F700C94C20750954095309521953F4F4F4FA3
S1130F805F4F089590958095709561957F4F8F4F31
S1130F909F4F08950E94F707A59F900DB49F900D51
S1130FA0A49F800D911D11240895A1E21A2EAA1B5D
S1130FB0BB1BFD010DC0AA1FBB1FEE1FFF1FA21705
S1130FC0B307E407F50720F0A21BB30BE40BF50B02
S1130FD0661F771F881F991F1A9469F7609570958B
S1130FE0809590959B01AC01BD01CF010895A29F0E
S1130FF0B001B39FC001A39F700D811D1124911DE9
S1131000B29F700D811D1124911D0895F894FFCF96
S1131010000401005249460057494600434C4B48DE
S11310204F4C4400525841434B004152424C4F53A1
S113103054004255534552520049444C45004F57C1
S11310404E4552004255535900493243206275734C
S1131050792E0074696D656F7574000A2D2D2D2D20
S11310603E204572726F7220696E2073656E6469EA
S11310706E6720616464722E0A004572726F72207A
S1131080696E20646174612073656E742E0045720C
S1131090726F7220696E2064617461207265636985
S10910A0657665642E0074
S9030000FC
